19001274376My Company      225PagoNomina210319A21031900000500003367533400000000000010024608513S
6000000077557340JOSE ESTEBAN GALLE         00000787980818283S01001092568800LOTE ST00000000000000000000000000000000
6000000077557340JOSE ESTEBAN GALLE         00000787980818283S01000591500000LOTE ST00000000000000000000000000000000
6000000077557340JOSE ESTEBAN GALLE         00000787980818283S01000148645400LOTE ST00000000000000000000000000000000
6000000077557340JOSE ESTEBAN GALLE         00000787980818283S01000736910400LOTE ST00000000000000000000000000000000
6000000077557340JOSE ESTEBAN GALLE         00000787980818283S01000797908900LOTE ST00000000000000000000000000000000
